{
  "address": "0x3b3FF6F69F16ac8593Dc17621fE329EAeA9e303e",
  "abi": [
    {
      "anonymous": false,
      "inputs": [
        {
          "indexed": false,
          "internalType": "uint256",
          "name": "level",
          "type": "uint256"
        },
        {
          "indexed": false,
          "internalType": "address",
          "name": "nftAddress",
          "type": "address"
        }
      ],
      "name": "DeSurveyNFTCreated",
      "type": "event"
    },
    {
      "anonymous": false,
      "inputs": [
        {
          "indexed": false,
          "internalType": "address",
          "name": "user",
          "type": "address"
        },
        {
          "indexed": false,
          "internalType": "uint256",
          "name": "level",
          "type": "uint256"
        },
        {
          "indexed": false,
          "internalType": "uint256",
          "name": "tokenId",
          "type": "uint256"
        }
      ],
      "name": "DeSurveyNFTMinted",
      "type": "event"
    },
    {
      "anonymous": false,
      "inputs": [
        {
          "indexed": false,
          "internalType": "uint8",
          "name": "version",
          "type": "uint8"
        }
      ],
      "name": "Initialized",
      "type": "event"
    },
    {
      "anonymous": false,
      "inputs": [
        {
          "indexed": true,
          "internalType": "address",
          "name": "previousOwner",
          "type": "address"
        },
        {
          "indexed": true,
          "internalType": "address",
          "name": "newOwner",
          "type": "address"
        }
      ],
      "name": "OwnershipTransferred",
      "type": "event"
    },
    {
      "anonymous": false,
      "inputs": [
        {
          "indexed": false,
          "internalType": "address",
          "name": "newSigner",
          "type": "address"
        }
      ],
      "name": "SignerAdded",
      "type": "event"
    },
    {
      "anonymous": false,
      "inputs": [
        {
          "indexed": false,
          "internalType": "address",
          "name": "oldSigner",
          "type": "address"
        }
      ],
      "name": "SignerRemoved",
      "type": "event"
    },
    {
      "inputs": [],
      "name": "EIP712_DOMAIN_TYPEHASH",
      "outputs": [
        {
          "internalType": "bytes32",
          "name": "",
          "type": "bytes32"
        }
      ],
      "stateMutability": "view",
      "type": "function"
    },
    {
      "inputs": [],
      "name": "HASHED_NAME",
      "outputs": [
        {
          "internalType": "bytes32",
          "name": "",
          "type": "bytes32"
        }
      ],
      "stateMutability": "view",
      "type": "function"
    },
    {
      "inputs": [],
      "name": "HASHED_VERSION",
      "outputs": [
        {
          "internalType": "bytes32",
          "name": "",
          "type": "bytes32"
        }
      ],
      "stateMutability": "view",
      "type": "function"
    },
    {
      "inputs": [],
      "name": "MINT_REQUEST_TYPEHASH",
      "outputs": [
        {
          "internalType": "bytes32",
          "name": "",
          "type": "bytes32"
        }
      ],
      "stateMutability": "view",
      "type": "function"
    },
    {
      "inputs": [
        {
          "internalType": "address",
          "name": "_user",
          "type": "address"
        },
        {
          "internalType": "uint256",
          "name": "_level",
          "type": "uint256"
        },
        {
          "internalType": "uint256",
          "name": "_validUntil",
          "type": "uint256"
        },
        {
          "internalType": "bytes",
          "name": "_signature",
          "type": "bytes"
        }
      ],
      "name": "_checkEIP712Signature",
      "outputs": [],
      "stateMutability": "view",
      "type": "function"
    },
    {
      "inputs": [
        {
          "internalType": "address",
          "name": "_signer",
          "type": "address"
        }
      ],
      "name": "addSigner",
      "outputs": [],
      "stateMutability": "nonpayable",
      "type": "function"
    },
    {
      "inputs": [
        {
          "internalType": "uint256",
          "name": "_price",
          "type": "uint256"
        },
        {
          "internalType": "uint256",
          "name": "_limit",
          "type": "uint256"
        }
      ],
      "name": "createDeSurveyNFT",
      "outputs": [],
      "stateMutability": "nonpayable",
      "type": "function"
    },
    {
      "inputs": [],
      "name": "currentLevel",
      "outputs": [
        {
          "internalType": "uint256",
          "name": "",
          "type": "uint256"
        }
      ],
      "stateMutability": "view",
      "type": "function"
    },
    {
      "inputs": [],
      "name": "getDomainSeparatorV4",
      "outputs": [
        {
          "internalType": "bytes32",
          "name": "domainSeparator",
          "type": "bytes32"
        }
      ],
      "stateMutability": "view",
      "type": "function"
    },
    {
      "inputs": [
        {
          "components": [
            {
              "internalType": "address",
              "name": "user",
              "type": "address"
            },
            {
              "internalType": "uint256",
              "name": "level",
              "type": "uint256"
            },
            {
              "internalType": "uint256",
              "name": "validUntil",
              "type": "uint256"
            }
          ],
          "internalType": "struct DeSurveyNFTFactory.MintRequest",
          "name": "_mintRequest",
          "type": "tuple"
        }
      ],
      "name": "getStructHash",
      "outputs": [
        {
          "internalType": "bytes32",
          "name": "structHash",
          "type": "bytes32"
        }
      ],
      "stateMutability": "pure",
      "type": "function"
    },
    {
      "inputs": [],
      "name": "initialize",
      "outputs": [],
      "stateMutability": "nonpayable",
      "type": "function"
    },
    {
      "inputs": [
        {
          "internalType": "address",
          "name": "",
          "type": "address"
        }
      ],
      "name": "isValidSigner",
      "outputs": [
        {
          "internalType": "bool",
          "name": "",
          "type": "bool"
        }
      ],
      "stateMutability": "view",
      "type": "function"
    },
    {
      "inputs": [
        {
          "internalType": "uint256",
          "name": "",
          "type": "uint256"
        }
      ],
      "name": "levelToNFTAddress",
      "outputs": [
        {
          "internalType": "address",
          "name": "",
          "type": "address"
        }
      ],
      "stateMutability": "view",
      "type": "function"
    },
    {
      "inputs": [
        {
          "internalType": "uint256",
          "name": "",
          "type": "uint256"
        }
      ],
      "name": "levelToPrice",
      "outputs": [
        {
          "internalType": "uint256",
          "name": "",
          "type": "uint256"
        }
      ],
      "stateMutability": "view",
      "type": "function"
    },
    {
      "inputs": [
        {
          "internalType": "uint256",
          "name": "_level",
          "type": "uint256"
        },
        {
          "internalType": "uint256",
          "name": "_validUntil",
          "type": "uint256"
        },
        {
          "internalType": "bytes",
          "name": "_signature",
          "type": "bytes"
        }
      ],
      "name": "mintDeSurveyNFT",
      "outputs": [],
      "stateMutability": "payable",
      "type": "function"
    },
    {
      "inputs": [],
      "name": "owner",
      "outputs": [
        {
          "internalType": "address",
          "name": "",
          "type": "address"
        }
      ],
      "stateMutability": "view",
      "type": "function"
    },
    {
      "inputs": [
        {
          "internalType": "address",
          "name": "_signer",
          "type": "address"
        }
      ],
      "name": "removeSigner",
      "outputs": [],
      "stateMutability": "nonpayable",
      "type": "function"
    },
    {
      "inputs": [],
      "name": "renounceOwnership",
      "outputs": [],
      "stateMutability": "nonpayable",
      "type": "function"
    },
    {
      "inputs": [
        {
          "internalType": "uint256",
          "name": "_level",
          "type": "uint256"
        },
        {
          "internalType": "string",
          "name": "_uri",
          "type": "string"
        }
      ],
      "name": "setBaseURI",
      "outputs": [],
      "stateMutability": "nonpayable",
      "type": "function"
    },
    {
      "inputs": [
        {
          "internalType": "uint256",
          "name": "_level",
          "type": "uint256"
        },
        {
          "internalType": "uint256",
          "name": "_limit",
          "type": "uint256"
        }
      ],
      "name": "setLimit",
      "outputs": [],
      "stateMutability": "nonpayable",
      "type": "function"
    },
    {
      "inputs": [
        {
          "internalType": "address",
          "name": "newOwner",
          "type": "address"
        }
      ],
      "name": "transferOwnership",
      "outputs": [],
      "stateMutability": "nonpayable",
      "type": "function"
    }
  ],
  "transactionHash": "0xfa75b9b7223955bb3597e78b7a04258e7d57d3ea97b3e38adace841ea5babe5c",
  "args": [],
  "numDeployments": 1,
  "solcInputHash": "7804ad69facd0d70bb343e5ecfb2ea06",
  "bytecode": "0x608060405234801561001057600080fd5b50613762806100206000396000f3fe608060405260043610620001435760003560e01c80638129fc1c11620000b9578063a4b0b01d1162000078578063a4b0b01d14620003e7578063c6d628761462000418578063c7977be7146200043d578063d5f505821462000473578063eb12d61e14620004b8578063f2fde38b14620004dd57600080fd5b80638129fc1c146200035b5780638da5cb5b146200037357806390084b34146200039357806392229bc414620003aa5780639dc4b9c914620003cf57600080fd5b806334fe6a65116200010657806334fe6a65146200023557806343e2714b1462000295578063621b6fea14620002ba578063644bb2f1146200030d578063715018a6146200034357600080fd5b806309b4686114620001485780630e316ab714620001ac57806313c65a6e14620001d3578063207add9114620001eb57806333cfcb9f1462000210575b600080fd5b3480156200015557600080fd5b506040805180820190915260038152620312e360ec1b602090910152620001997fe6bbd6277e1bf288eed5e8d1780f9a50b239e86b153736bceebccf4ea79d90b381565b6040519081526020015b60405180910390f35b348015620001b957600080fd5b50620001d1620001cb366004620011a0565b62000502565b005b348015620001e057600080fd5b506200019962000564565b348015620001f857600080fd5b50620001d16200020a366004620011c5565b6200063f565b3480156200021d57600080fd5b50620001d16200022f36600462001232565b620006bb565b3480156200024257600080fd5b5060408051808201909152601281527144655375727665794e4654466163746f727960701b602090910152620001997f2a15792c9eba47b052c9f338bfc07750f09b66e5c8df69f9f4e0f2966319518b81565b348015620002a257600080fd5b50620001d1620002b43660046200131f565b62000704565b348015620002c757600080fd5b50620002f4620002d93660046200138d565b6067602052600090815260409020546001600160a01b031681565b6040516001600160a01b039091168152602001620001a3565b3480156200031a57600080fd5b50620001997fc5dfc98550e22e1da95758f460eca91609999c6c2852e59207b4328adfd05a5081565b3480156200035057600080fd5b50620001d1620008ab565b3480156200036857600080fd5b50620001d1620008c3565b3480156200038057600080fd5b506033546001600160a01b0316620002f4565b620001d1620003a4366004620013a7565b620009da565b348015620003b757600080fd5b50620001d1620003c9366004620011c5565b62000b26565b348015620003dc57600080fd5b506200019960665481565b348015620003f457600080fd5b5062000199620004063660046200138d565b60686020526000908152604090205481565b3480156200042557600080fd5b506200019962000437366004620013fe565b62000c7d565b3480156200044a57600080fd5b50620001997f8b73c3c69bb8fe3d512ecc4cf759cc79239f7b179b0ffacaa9a75d522b39400f81565b3480156200048057600080fd5b50620004a762000492366004620011a0565b60656020526000908152604090205460ff1681565b6040519015158152602001620001a3565b348015620004c557600080fd5b50620001d1620004d7366004620011a0565b62000cec565b348015620004ea57600080fd5b50620001d1620004fc366004620011a0565b62000d4b565b6200050c62000dc7565b6001600160a01b038116600081815260656020908152604091829020805460ff1916905590519182527f3525e22824a8a7df2c9a6029941c824cf95b6447f1e13d5128fd3826d35afe8b91015b60405180910390a150565b604080518082018252601281527144655375727665794e4654466163746f727960701b6020918201528151808301835260038152620312e360ec1b9082015281517f8b73c3c69bb8fe3d512ecc4cf759cc79239f7b179b0ffacaa9a75d522b39400f818301527f2a15792c9eba47b052c9f338bfc07750f09b66e5c8df69f9f4e0f2966319518b818401527fe6bbd6277e1bf288eed5e8d1780f9a50b239e86b153736bceebccf4ea79d90b360608201524660808201523060a0808301919091528351808303909101815260c0909101909252815191012090565b6200064962000dc7565b600082815260676020526040908190205490516327ea6f2b60e01b8152600481018390526001600160a01b03909116906327ea6f2b906024015b600060405180830381600087803b1580156200069e57600080fd5b505af1158015620006b3573d6000803e3d6000fd5b505050505050565b620006c562000dc7565b600082815260676020526040908190205490516355f804b360e01b81526001600160a01b03909116906355f804b3906200068390849060040162001465565b604080516060810182526001600160a01b03871681526020810186905290810184905260006200077d620007388362000c7d565b6200074262000564565b6040805161190160f01b6020808301919091526022820193909352604280820194909452815180820390940184526062019052815191012090565b90506000620007c585858080601f016020809104026020016040519081016040528093929190818152602001838380828437600092019190915250869392505062000e239050565b6001600160a01b03811660009081526065602052604090205490915060ff16620008415760405162461bcd60e51b815260206004820152602260248201527f44655375727665794e4654466163746f72793a20496e76616c6964207369676e60448201526132b960f11b60648201526084015b60405180910390fd5b85421115620008a15760405162461bcd60e51b815260206004820152602560248201527f44655375727665794e4654466163746f72793a205369676e61747572652065786044820152641c1a5c995960da1b606482015260840162000838565b5050505050505050565b620008b562000dc7565b620008c1600062000e4b565b565b600054610100900460ff1615808015620008e45750600054600160ff909116105b80620009005750303b15801562000900575060005460ff166001145b620009655760405162461bcd60e51b815260206004820152602e60248201527f496e697469616c697a61626c653a20636f6e747261637420697320616c72656160448201526d191e481a5b9a5d1a585b1a5e995960921b606482015260840162000838565b6000805460ff19166001179055801562000989576000805461ff0019166101001790555b6200099362000e9d565b8015620009d7576000805461ff0019169055604051600181527f7f26b83ff96e1f2b6a682f133852f6798a09c465da95921460cefb38474024989060200162000559565b50565b6000848152606760205260409020546001600160a01b031662000a4f5760405162461bcd60e51b815260206004820152602660248201527f44655375727665794e4654466163746f72793a204e465420646f6573206e6f7460448201526508195e1a5cdd60d21b606482015260840162000838565b62000a5e338585858562000704565b6000848152606760205260408082205490516335313c2160e11b81523360048201526001600160a01b0390911690636a627842906024016020604051808303816000875af115801562000ab5573d6000803e3d6000fd5b505050506040513d601f19601f8201168201806040525081019062000adb9190620014b5565b60408051338152602081018890529081018290529091507f9c53b02ed334547d162e9f5672cc3dfc70c63290ac49c28febeebb86f657306f9060600160405180910390a15050505050565b62000b3062000dc7565b600060666000815462000b4390620014cf565b91829055506000818152606760205260409020549091506001600160a01b03161562000bc15760405162461bcd60e51b815260206004820152602660248201527f44655375727665794e4654466163746f72793a204e465420616c72656164792060448201526565786973747360d01b606482015260840162000838565b600081848460405162000bd49062001175565b92835260208301919091526040820152606001604051809103906000f08015801562000c04573d6000803e3d6000fd5b50600083815260676020908152604080832080546001600160a01b0319166001600160a01b03861690811790915560688352928190208890558051868152918201929092529192507f35402b14b59c949d8de50101afe87e19ae658892a30b51a3586529f9604b7ba4910160405180910390a150505050565b805160208083015160409384015184517fc5dfc98550e22e1da95758f460eca91609999c6c2852e59207b4328adfd05a50818501526001600160a01b039094168486015260608401919091526080808401919091528351808403909101815260a0909201909252805191012090565b62000cf662000dc7565b6001600160a01b038116600081815260656020908152604091829020805460ff1916600117905590519182527f47d1c22a25bb3a5d4e481b9b1e6944c2eade3181a0a20b495ed61d35b5323f24910162000559565b62000d5562000dc7565b6001600160a01b03811662000dbc5760405162461bcd60e51b815260206004820152602660248201527f4f776e61626c653a206e6577206f776e657220697320746865207a65726f206160448201526564647265737360d01b606482015260840162000838565b620009d78162000e4b565b6033546001600160a01b03163314620008c15760405162461bcd60e51b815260206004820181905260248201527f4f776e61626c653a2063616c6c6572206973206e6f7420746865206f776e6572604482015260640162000838565b600080600062000e34858562000ed1565b9150915062000e438162000f1a565b509392505050565b603380546001600160a01b038381166001600160a01b0319831681179093556040519116919082907f8be0079c531659141344cd1fd0a4f28419497f9722a3daafe3b4186f6b6457e090600090a35050565b600054610100900460ff1662000ec75760405162461bcd60e51b81526004016200083890620014f7565b620008c162001077565b600080825160410362000f0b5760208301516040840151606085015160001a62000efe87828585620010ac565b9450945050505062000f13565b506000905060025b9250929050565b600081600481111562000f315762000f3162001542565b0362000f3a5750565b600181600481111562000f515762000f5162001542565b0362000fa05760405162461bcd60e51b815260206004820152601860248201527f45434453413a20696e76616c6964207369676e61747572650000000000000000604482015260640162000838565b600281600481111562000fb75762000fb762001542565b03620010065760405162461bcd60e51b815260206004820152601f60248201527f45434453413a20696e76616c6964207369676e6174757265206c656e67746800604482015260640162000838565b60038160048111156200101d576200101d62001542565b03620009d75760405162461bcd60e51b815260206004820152602260248201527f45434453413a20696e76616c6964207369676e6174757265202773272076616c604482015261756560f01b606482015260840162000838565b600054610100900460ff16620010a15760405162461bcd60e51b81526004016200083890620014f7565b620008c13362000e4b565b6000807f7fffffffffffffffffffffffffffffff5d576e7357a4501ddfe92f46681b20a0831115620010e557506000905060036200116c565b6040805160008082526020820180845289905260ff881692820192909252606081018690526080810185905260019060a0016020604051602081039080840390855afa1580156200113a573d6000803e3d6000fd5b5050604051601f1901519150506001600160a01b03811662001165576000600192509250506200116c565b9150600090505b94509492505050565b6121d4806200155983390190565b80356001600160a01b03811681146200119b57600080fd5b919050565b600060208284031215620011b357600080fd5b620011be8262001183565b9392505050565b60008060408385031215620011d957600080fd5b50508035926020909101359150565b634e487b7160e01b600052604160045260246000fd5b604051601f8201601f1916810167ffffffffffffffff811182821017156200122a576200122a620011e8565b604052919050565b600080604083850312156200124657600080fd5b8235915060208084013567ffffffffffffffff808211156200126757600080fd5b818601915086601f8301126200127c57600080fd5b813581811115620012915762001291620011e8565b620012a5601f8201601f19168501620011fe565b91508082528784828501011115620012bc57600080fd5b80848401858401376000848284010152508093505050509250929050565b60008083601f840112620012ed57600080fd5b50813567ffffffffffffffff8111156200130657600080fd5b60208301915083602082850101111562000f1357600080fd5b6000806000806000608086880312156200133857600080fd5b620013438662001183565b94506020860135935060408601359250606086013567ffffffffffffffff8111156200136e57600080fd5b6200137c88828901620012da565b969995985093965092949392505050565b600060208284031215620013a057600080fd5b5035919050565b60008060008060608587031215620013be57600080fd5b8435935060208501359250604085013567ffffffffffffffff811115620013e457600080fd5b620013f287828801620012da565b95989497509550505050565b6000606082840312156200141157600080fd5b6040516060810181811067ffffffffffffffff82111715620014375762001437620011e8565b604052620014458362001183565b815260208301356020820152604083013560408201528091505092915050565b600060208083528351808285015260005b81811015620014945785810183015185820160400152820162001476565b506000604082860101526040601f19601f8301168501019250505092915050565b600060208284031215620014c857600080fd5b5051919050565b600060018201620014f057634e487b7160e01b600052601160045260246000fd5b5060010190565b6020808252602b908201527f496e697469616c697a61626c653a20636f6e7472616374206973206e6f74206960408201526a6e697469616c697a696e6760a81b606082015260800190565b634e487b7160e01b600052602160045260246000fdfe60c0604052336080523480156200001557600080fd5b50604051620021d4380380620021d4833981016040819052620000389162000267565b6200004e83620000d960201b62000d731760201c565b604051602001620000609190620002c8565b6040516020818303038152906040526200008584620000d960201b62000d731760201c565b604051602001620000979190620002f7565b60408051601f198184030181529190526000620000b58382620003ba565b506001620000c48282620003ba565b50505060a09290925260075560065562000486565b60606000620000f3836200017d60201b62000e061760201c565b60010190506000816001600160401b0381111562000115576200011562000315565b6040519080825280601f01601f19166020018201604052801562000140576020820181803683370190505b5090508181016020015b600019016f181899199a1a9b1b9c1cb0b131b232b360811b600a86061a8153600a85049450846200014a57509392505050565b6000807a184f03e93ff9f4daa797ed6e38ed64bf6a1f0100000000000000008310620001c7577a184f03e93ff9f4daa797ed6e38ed64bf6a1f010000000000000000830492506040015b6d04ee2d6d415b85acef81000000008310620001f4576d04ee2d6d415b85acef8100000000830492506020015b662386f26fc1000083106200021357662386f26fc10000830492506010015b6305f5e10083106200022c576305f5e100830492506008015b61271083106200024157612710830492506004015b6064831062000254576064830492506002015b600a831062000261576001015b92915050565b6000806000606084860312156200027d57600080fd5b8351925060208401519150604084015190509250925092565b6000815160005b81811015620002b957602081850181015186830152016200029d565b50600093019283525090919050565b70111954dd5c9d995e5391950b53195d995b607a1b81526000620002f0601183018462000296565b9392505050565b661114d391950b5360ca1b81526000620002f0600783018462000296565b634e487b7160e01b600052604160045260246000fd5b600181811c908216806200034057607f821691505b6020821081036200036157634e487b7160e01b600052602260045260246000fd5b50919050565b601f821115620003b557600081815260208120601f850160051c81016020861015620003905750805b601f850160051c820191505b81811015620003b1578281556001016200039c565b5050505b505050565b81516001600160401b03811115620003d657620003d662000315565b620003ee81620003e784546200032b565b8462000367565b602080601f8311600181146200042657600084156200040d5750858301515b600019600386901b1c1916600185901b178555620003b1565b600085815260208120601f198616915b82811015620004575788860151825594840194600190910190840162000436565b5085821015620004765787850151600019600388901b60f8161c191681555b5050505050600190811b01905550565b60805160a051611d0c620004c8600039600061031d0152600081816102530152818161070d015281816107c7015281816108bb0152610bb40152611d0c6000f3fe60806040526004361061014b5760003560e01c80636fd5ae15116100b6578063a22cb4651161006f578063a22cb465146103d7578063a4d66daf146103f7578063b88d4fde1461040d578063c87b56dd1461042d578063e00dd1611461044d578063e985e9c51461046357600080fd5b80636fd5ae151461030b57806370a082311461033f578063715ca5421461035f57806395d89b411461038c5780639dc29fac146103a1578063a035b1fe146103c157600080fd5b80632dd31000116101085780632dd310001461024157806342842e0e1461027557806355f804b3146102955780636352211e146102b55780636a627842146102d55780636c0360eb146102f657600080fd5b806301ffc9a71461015057806306fdde0314610185578063081812fc146101a7578063095ea7b3146101df57806323b872dd1461020157806327ea6f2b14610221575b600080fd5b34801561015c57600080fd5b5061017061016b366004611616565b6104ac565b60405190151581526020015b60405180910390f35b34801561019157600080fd5b5061019a6104fe565b60405161017c9190611683565b3480156101b357600080fd5b506101c76101c2366004611696565b610590565b6040516001600160a01b03909116815260200161017c565b3480156101eb57600080fd5b506101ff6101fa3660046116cb565b6105b7565b005b34801561020d57600080fd5b506101ff61021c3660046116f5565b6106d1565b34801561022d57600080fd5b506101ff61023c366004611696565b610702565b34801561024d57600080fd5b506101c77f000000000000000000000000000000000000000000000000000000000000000081565b34801561028157600080fd5b506101ff6102903660046116f5565b6107a1565b3480156102a157600080fd5b506101ff6102b03660046117bd565b6107bc565b3480156102c157600080fd5b506101c76102d0366004611696565b61084e565b6102e86102e3366004611806565b6108ae565b60405190815260200161017c565b34801561030257600080fd5b5061019a610a86565b34801561031757600080fd5b506102e87f000000000000000000000000000000000000000000000000000000000000000081565b34801561034b57600080fd5b506102e861035a366004611806565b610b14565b34801561036b57600080fd5b506102e861037a366004611806565b60096020526000908152604090205481565b34801561039857600080fd5b5061019a610b9a565b3480156103ad57600080fd5b506101ff6103bc3660046116cb565b610ba9565b3480156103cd57600080fd5b506102e860075481565b3480156103e357600080fd5b506101ff6103f2366004611821565b610cbc565b34801561040357600080fd5b506102e860065481565b34801561041957600080fd5b506101ff61042836600461185d565b610cc7565b34801561043957600080fd5b5061019a610448366004611696565b610cff565b34801561045957600080fd5b506102e860085481565b34801561046f57600080fd5b5061017061047e3660046118d9565b6001600160a01b03918216600090815260056020908152604080832093909416825291909152205460ff1690565b60006001600160e01b031982166380ac58cd60e01b14806104dd57506001600160e01b03198216635b5e139f60e01b145b806104f857506301ffc9a760e01b6001600160e01b03198316145b92915050565b60606000805461050d9061190c565b80601f01602080910402602001604051908101604052809291908181526020018280546105399061190c565b80156105865780601f1061055b57610100808354040283529160200191610586565b820191906000526020600020905b81548152906001019060200180831161056957829003601f168201915b5050505050905090565b600061059b82610ede565b506000908152600460205260409020546001600160a01b031690565b60006105c28261084e565b9050806001600160a01b0316836001600160a01b0316036106345760405162461bcd60e51b815260206004820152602160248201527f4552433732313a20617070726f76616c20746f2063757272656e74206f776e656044820152603960f91b60648201526084015b60405180910390fd5b336001600160a01b03821614806106505750610650813361047e565b6106c25760405162461bcd60e51b815260206004820152603d60248201527f4552433732313a20617070726f76652063616c6c6572206973206e6f7420746f60448201527f6b656e206f776e6572206f7220617070726f76656420666f7220616c6c000000606482015260840161062b565b6106cc8383610f40565b505050565b6106db3382610fae565b6106f75760405162461bcd60e51b815260040161062b90611946565b6106cc83838361102d565b336001600160a01b037f0000000000000000000000000000000000000000000000000000000000000000161461074a5760405162461bcd60e51b815260040161062b90611993565b60085481101561079c5760405162461bcd60e51b815260206004820152601a60248201527f44655375727665794e46543a204c696d697420746f6f206c6f77000000000000604482015260640161062b565b600655565b6106cc83838360405180602001604052806000815250610cc7565b336001600160a01b037f000000000000000000000000000000000000000000000000000000000000000016146108045760405162461bcd60e51b815260040161062b90611993565b7fc41b7cb64e5be01af4afc2641afc861432136270f4206b7773f229b658b96699600a826040516108369291906119e2565b60405180910390a1600a61084a8282611acf565b5050565b6000818152600260205260408120546001600160a01b0316806104f85760405162461bcd60e51b8152602060048201526018602482015277115490cdcc8c4e881a5b9d985b1a59081d1bdad95b88125160421b604482015260640161062b565b6000336001600160a01b037f000000000000000000000000000000000000000000000000000000000000000016146108f85760405162461bcd60e51b815260040161062b90611993565b600654600854111561094c5760405162461bcd60e51b815260206004820152601960248201527f44657375727665794e46543a20457863656564206c696d697400000000000000604482015260640161062b565b6001600160a01b038216600090815260096020526040902054156109b25760405162461bcd60e51b815260206004820152601b60248201527f44657375727665794e46543a20416c7265616479206d696e7465640000000000604482015260640161062b565b60075415610a0c57600754341015610a0c5760405162461bcd60e51b815260206004820152601d60248201527f44657375727665794e46543a204e6f7420656e6f7567682076616c7565000000604482015260640161062b565b600860008154610a1b90611b8f565b91829055509050610a2c8282611191565b6001600160a01b03821660008181526009602052604090819020839055517f0f6798a560793a54c3bcfe86a93cde1e73087d944c0ea20544137d412139688590610a799084815260200190565b60405180910390a2919050565b600a8054610a939061190c565b80601f0160208091040260200160405190810160405280929190818152602001828054610abf9061190c565b8015610b0c5780601f10610ae157610100808354040283529160200191610b0c565b820191906000526020600020905b815481529060010190602001808311610aef57829003601f168201915b505050505081565b60006001600160a01b038216610b7e5760405162461bcd60e51b815260206004820152602960248201527f4552433732313a2061646472657373207a65726f206973206e6f7420612076616044820152683634b21037bbb732b960b91b606482015260840161062b565b506001600160a01b031660009081526003602052604090205490565b60606001805461050d9061190c565b336001600160a01b037f00000000000000000000000000000000000000000000000000000000000000001614610bf15760405162461bcd60e51b815260040161062b90611993565b816001600160a01b0316610c048261084e565b6001600160a01b031614610c5a5760405162461bcd60e51b815260206004820152601f60248201527f44657375727665794e46543a204e6f74206f776e6572206f6620746f6b656e00604482015260640161062b565b610c63816111ab565b6001600160a01b03821660008181526009602052604080822091909155517fcc16f5dbb4873280815c1ee09dbd06736cffcc184412cf7a71a0fdb75d397ca590610cb09084815260200190565b60405180910390a25050565b61084a338383611240565b610cd13383610fae565b610ced5760405162461bcd60e51b815260040161062b90611946565b610cf98484848461130e565b50505050565b6060610d0a82610ede565b6000610d2160408051602081019091526000815290565b90506000815111610d415760405180602001604052806000815250610d6c565b80610d4b84610d73565b604051602001610d5c929190611bb6565b6040516020818303038152906040525b9392505050565b60606000610d8083610e06565b600101905060008167ffffffffffffffff811115610da057610da0611731565b6040519080825280601f01601f191660200182016040528015610dca576020820181803683370190505b5090508181016020015b600019016f181899199a1a9b1b9c1cb0b131b232b360811b600a86061a8153600a8504945084610dd457509392505050565b60008072184f03e93ff9f4daa797ed6e38ed64bf6a1f0160401b8310610e455772184f03e93ff9f4daa797ed6e38ed64bf6a1f0160401b830492506040015b6d04ee2d6d415b85acef81000000008310610e71576d04ee2d6d415b85acef8100000000830492506020015b662386f26fc100008310610e8f57662386f26fc10000830492506010015b6305f5e1008310610ea7576305f5e100830492506008015b6127108310610ebb57612710830492506004015b60648310610ecd576064830492506002015b600a83106104f85760010192915050565b6000818152600260205260409020546001600160a01b0316610f3d5760405162461bcd60e51b8152602060048201526018602482015277115490cdcc8c4e881a5b9d985b1a59081d1bdad95b88125160421b604482015260640161062b565b50565b600081815260046020526040902080546001600160a01b0319166001600160a01b0384169081179091558190610f758261084e565b6001600160a01b03167f8c5be1e5ebec7d5bd14f71427d1e84f3dd0314c0f7b2291e5b200ac8c7c3b92560405160405180910390a45050565b600080610fba8361084e565b9050806001600160a01b0316846001600160a01b0316148061100157506001600160a01b0380821660009081526005602090815260408083209388168352929052205460ff165b806110255750836001600160a01b031661101a84610590565b6001600160a01b0316145b949350505050565b826001600160a01b03166110408261084e565b6001600160a01b0316146110665760405162461bcd60e51b815260040161062b90611be5565b6001600160a01b0382166110c85760405162461bcd60e51b8152602060048201526024808201527f4552433732313a207472616e7366657220746f20746865207a65726f206164646044820152637265737360e01b606482015260840161062b565b826001600160a01b03166110db8261084e565b6001600160a01b0316146111015760405162461bcd60e51b815260040161062b90611be5565b600081815260046020908152604080832080546001600160a01b03199081169091556001600160a01b0387811680865260038552838620805460001901905590871680865283862080546001019055868652600290945282852080549092168417909155905184937fddf252ad1be2c89b69c2b068fc378daa952ba7f163c4a11628f55a4df523b3ef91a4505050565b61084a828260405180602001604052806000815250611341565b60006111b68261084e565b90506111c18261084e565b600083815260046020908152604080832080546001600160a01b03199081169091556001600160a01b0385168085526003845282852080546000190190558785526002909352818420805490911690555192935084927fddf252ad1be2c89b69c2b068fc378daa952ba7f163c4a11628f55a4df523b3ef908390a45050565b816001600160a01b0316836001600160a01b0316036112a15760405162461bcd60e51b815260206004820152601960248201527f4552433732313a20617070726f766520746f2063616c6c657200000000000000604482015260640161062b565b6001600160a01b03838116600081815260056020908152604080832094871680845294825291829020805460ff191686151590811790915591519182527f17307eab39ab6107e8899845ad3d59bd9653f200f220920489ca2b5937696c31910160405180910390a3505050565b61131984848461102d565b61132584848484611374565b610cf95760405162461bcd60e51b815260040161062b90611c2a565b61134b8383611475565b6113586000848484611374565b6106cc5760405162461bcd60e51b815260040161062b90611c2a565b60006001600160a01b0384163b1561146a57604051630a85bd0160e11b81526001600160a01b0385169063150b7a02906113b8903390899088908890600401611c7c565b6020604051808303816000875af19250505080156113f3575060408051601f3d908101601f191682019092526113f091810190611cb9565b60015b611450573d808015611421576040519150601f19603f3d011682016040523d82523d6000602084013e611426565b606091505b5080516000036114485760405162461bcd60e51b815260040161062b90611c2a565b805181602001fd5b6001600160e01b031916630a85bd0160e11b149050611025565b506001949350505050565b6001600160a01b0382166114cb5760405162461bcd60e51b815260206004820181905260248201527f4552433732313a206d696e7420746f20746865207a65726f2061646472657373604482015260640161062b565b6000818152600260205260409020546001600160a01b0316156115305760405162461bcd60e51b815260206004820152601c60248201527f4552433732313a20746f6b656e20616c7265616479206d696e74656400000000604482015260640161062b565b6000818152600260205260409020546001600160a01b0316156115955760405162461bcd60e51b815260206004820152601c60248201527f4552433732313a20746f6b656e20616c7265616479206d696e74656400000000604482015260640161062b565b6001600160a01b038216600081815260036020908152604080832080546001019055848352600290915280822080546001600160a01b0319168417905551839291907fddf252ad1be2c89b69c2b068fc378daa952ba7f163c4a11628f55a4df523b3ef908290a45050565b6001600160e01b031981168114610f3d57600080fd5b60006020828403121561162857600080fd5b8135610d6c81611600565b60005b8381101561164e578181015183820152602001611636565b50506000910152565b6000815180845261166f816020860160208601611633565b601f01601f19169290920160200192915050565b602081526000610d6c6020830184611657565b6000602082840312156116a857600080fd5b5035919050565b80356001600160a01b03811681146116c657600080fd5b919050565b600080604083850312156116de57600080fd5b6116e7836116af565b946020939093013593505050565b60008060006060848603121561170a57600080fd5b611713846116af565b9250611721602085016116af565b9150604084013590509250925092565b634e487b7160e01b600052604160045260246000fd5b600067ffffffffffffffff8084111561176257611762611731565b604051601f8501601f19908116603f0116810190828211818310171561178a5761178a611731565b816040528093508581528686860111156117a357600080fd5b858560208301376000602087830101525050509392505050565b6000602082840312156117cf57600080fd5b813567ffffffffffffffff8111156117e657600080fd5b8201601f810184136117f757600080fd5b61102584823560208401611747565b60006020828403121561181857600080fd5b610d6c826116af565b6000806040838503121561183457600080fd5b61183d836116af565b91506020830135801515811461185257600080fd5b809150509250929050565b6000806000806080858703121561187357600080fd5b61187c856116af565b935061188a602086016116af565b925060408501359150606085013567ffffffffffffffff8111156118ad57600080fd5b8501601f810187136118be57600080fd5b6118cd87823560208401611747565b91505092959194509250565b600080604083850312156118ec57600080fd5b6118f5836116af565b9150611903602084016116af565b90509250929050565b600181811c9082168061192057607f821691505b60208210810361194057634e487b7160e01b600052602260045260246000fd5b50919050565b6020808252602d908201527f4552433732313a2063616c6c6572206973206e6f7420746f6b656e206f776e6560408201526c1c881bdc88185c1c1c9bdd9959609a1b606082015260800190565b6020808252602f908201527f416368696576656d656e74734e46543a204f6e6c7920666163746f727920636f60408201526e1b9d1c9858dd0818d85b8818d85b1b608a1b606082015260800190565b6040815260008084546119f48161190c565b8060408601526060600180841660008114611a165760018114611a3057611a61565b60ff1985168884015283151560051b880183019550611a61565b8960005260208060002060005b86811015611a585781548b8201870152908401908201611a3d565b8a018501975050505b50505050508281036020840152611a788185611657565b95945050505050565b601f8211156106cc57600081815260208120601f850160051c81016020861015611aa85750805b601f850160051c820191505b81811015611ac757828155600101611ab4565b505050505050565b815167ffffffffffffffff811115611ae957611ae9611731565b611afd81611af7845461190c565b84611a81565b602080601f831160018114611b325760008415611b1a5750858301515b600019600386901b1c1916600185901b178555611ac7565b600085815260208120601f198616915b82811015611b6157888601518255948401946001909101908401611b42565b5085821015611b7f5787850151600019600388901b60f8161c191681555b5050505050600190811b01905550565b600060018201611baf57634e487b7160e01b600052601160045260246000fd5b5060010190565b60008351611bc8818460208801611633565b835190830190611bdc818360208801611633565b01949350505050565b60208082526025908201527f4552433732313a207472616e736665722066726f6d20696e636f72726563742060408201526437bbb732b960d91b606082015260800190565b60208082526032908201527f4552433732313a207472616e7366657220746f206e6f6e20455243373231526560408201527131b2b4bb32b91034b6b83632b6b2b73a32b960711b606082015260800190565b6001600160a01b0385811682528416602082015260408101839052608060608201819052600090611caf90830184611657565b9695505050505050565b600060208284031215611ccb57600080fd5b8151610d6c8161160056fea264697066735822122059781d4ea235427a1ae356a9914b14e03ea91bbd3678933747f6dcc5093620f564736f6c63430008110033a2646970667358221220e92eec9e3096714dec1c028aaa6d85111f1ea140e8f8b79bb8f4fbb562ef167d64736f6c63430008110033",
  "devdoc": {
    "kind": "dev",
    "methods": {
      "owner()": {
        "details": "Returns the address of the current owner."
      },
      "renounceOwnership()": {
        "details": "Leaves the contract without owner. It will not be possible to call `onlyOwner` functions anymore. Can only be called by the current owner. NOTE: Renouncing ownership will leave the contract without an owner, thereby removing any functionality that is only available to the owner."
      },
      "transferOwnership(address)": {
        "details": "Transfers ownership of the contract to a new account (`newOwner`). Can only be called by the current owner."
      }
    },
    "version": 1
  },
  "userdoc": {
    "kind": "user",
    "methods": {},
    "version": 1
  },
  "storageLayout": {
    "storage": [
      {
        "astId": 138,
        "contract": "contracts/DeSurveyNFTFactory.sol:DeSurveyNFTFactory",
        "label": "_initialized",
        "offset": 0,
        "slot": "0",
        "type": "t_uint8"
      },
      {
        "astId": 141,
        "contract": "contracts/DeSurveyNFTFactory.sol:DeSurveyNFTFactory",
        "label": "_initializing",
        "offset": 1,
        "slot": "0",
        "type": "t_bool"
      },
      {
        "astId": 625,
        "contract": "contracts/DeSurveyNFTFactory.sol:DeSurveyNFTFactory",
        "label": "__gap",
        "offset": 0,
        "slot": "1",
        "type": "t_array(t_uint256)50_storage"
      },
      {
        "astId": 10,
        "contract": "contracts/DeSurveyNFTFactory.sol:DeSurveyNFTFactory",
        "label": "_owner",
        "offset": 0,
        "slot": "51",
        "type": "t_address"
      },
      {
        "astId": 130,
        "contract": "contracts/DeSurveyNFTFactory.sol:DeSurveyNFTFactory",
        "label": "__gap",
        "offset": 0,
        "slot": "52",
        "type": "t_array(t_uint256)49_storage"
      },
      {
        "astId": 4828,
        "contract": "contracts/DeSurveyNFTFactory.sol:DeSurveyNFTFactory",
        "label": "isValidSigner",
        "offset": 0,
        "slot": "101",
        "type": "t_mapping(t_address,t_bool)"
      },
      {
        "astId": 4830,
        "contract": "contracts/DeSurveyNFTFactory.sol:DeSurveyNFTFactory",
        "label": "currentLevel",
        "offset": 0,
        "slot": "102",
        "type": "t_uint256"
      },
      {
        "astId": 4834,
        "contract": "contracts/DeSurveyNFTFactory.sol:DeSurveyNFTFactory",
        "label": "levelToNFTAddress",
        "offset": 0,
        "slot": "103",
        "type": "t_mapping(t_uint256,t_address)"
      },
      {
        "astId": 4838,
        "contract": "contracts/DeSurveyNFTFactory.sol:DeSurveyNFTFactory",
        "label": "levelToPrice",
        "offset": 0,
        "slot": "104",
        "type": "t_mapping(t_uint256,t_uint256)"
      }
    ],
    "types": {
      "t_address": {
        "encoding": "inplace",
        "label": "address",
        "numberOfBytes": "20"
      },
      "t_array(t_uint256)49_storage": {
        "base": "t_uint256",
        "encoding": "inplace",
        "label": "uint256[49]",
        "numberOfBytes": "1568"
      },
      "t_array(t_uint256)50_storage": {
        "base": "t_uint256",
        "encoding": "inplace",
        "label": "uint256[50]",
        "numberOfBytes": "1600"
      },
      "t_bool": {
        "encoding": "inplace",
        "label": "bool",
        "numberOfBytes": "1"
      },
      "t_mapping(t_address,t_bool)": {
        "encoding": "mapping",
        "key": "t_address",
        "label": "mapping(address => bool)",
        "numberOfBytes": "32",
        "value": "t_bool"
      },
      "t_mapping(t_uint256,t_address)": {
        "encoding": "mapping",
        "key": "t_uint256",
        "label": "mapping(uint256 => address)",
        "numberOfBytes": "32",
        "value": "t_address"
      },
      "t_mapping(t_uint256,t_uint256)": {
        "encoding": "mapping",
        "key": "t_uint256",
        "label": "mapping(uint256 => uint256)",
        "numberOfBytes": "32",
        "value": "t_uint256"
      },
      "t_uint256": {
        "encoding": "inplace",
        "label": "uint256",
        "numberOfBytes": "32"
      },
      "t_uint8": {
        "encoding": "inplace",
        "label": "uint8",
        "numberOfBytes": "1"
      }
    }
  }
}